{
  "contractName": "SimpleStorageSC",
  "abi": [
    {
      "constant": false,
      "inputs": [
        {
          "name": "_x",
          "type": "uint256"
        }
      ],
      "name": "setValue",
      "outputs": [],
      "payable": false,
      "stateMutability": "nonpayable",
      "type": "function"
    },
    {
      "constant": true,
      "inputs": [],
      "name": "getValue",
      "outputs": [
        {
          "name": "",
          "type": "uint256"
        }
      ],
      "payable": false,
      "stateMutability": "view",
      "type": "function"
    }
  ],
  "bytecode": "0x608060405234801561001057600080fd5b5060df8061001f6000396000f3006080604052600436106049576000357c0100000000000000000000000000000000000000000000000000000000900463ffffffff1680632096525514604e57806355241077146076575b600080fd5b348015605957600080fd5b50606060a0565b6040518082815260200191505060405180910390f35b348015608157600080fd5b50609e6004803603810190808035906020019092919050505060a9565b005b60008054905090565b80600081905550505600a165627a7a723058206fc77026ed3fd4d06eab69a569534dcd8062327308a03a1af767def76a05910d0029",
  "source": "pragma solidity ^0.4.23;\n\ncontract SimpleStorageSC {\n\n    uint storedData;\n\n    function setValue(uint _x) public {\n        storedData = _x;\n    }\n\n    function getValue() public view returns (uint) {\n        return storedData;\n    }\n\n}\n\n",
  "sourcePath": "/Users/songahlee/ezfarm/chain/truffle/contracts/SimpleStorageSC.sol",
  "compiler": {
    "name": "solc",
    "version": "0.4.24+commit.e67f0147.Emscripten.clang"
  },
  "schemaVersion": "2.0.1",
  "updatedAt": "2019-01-30T05:52:18.319Z"
}